{
  "contractName": "StudentData",
  "abi": [
    {
      "inputs": [
        {
          "internalType": "uint256",
          "name": "",
          "type": "uint256"
        }
      ],
      "name": "students",
      "outputs": [
        {
          "internalType": "string",
          "name": "name",
          "type": "string"
        },
        {
          "internalType": "uint256",
          "name": "age",
          "type": "uint256"
        },
        {
          "internalType": "string",
          "name": "email",
          "type": "string"
        },
        {
          "internalType": "string",
          "name": "gender",
          "type": "string"
        }
      ],
      "stateMutability": "view",
      "type": "function",
      "constant": true
    },
    {
      "inputs": [
        {
          "internalType": "uint256",
          "name": "rollNo",
          "type": "uint256"
        },
        {
          "internalType": "string",
          "name": "_name",
          "type": "string"
        },
        {
          "internalType": "uint256",
          "name": "_age",
          "type": "uint256"
        },
        {
          "internalType": "string",
          "name": "_email",
          "type": "string"
        },
        {
          "internalType": "string[]",
          "name": "_subjects",
          "type": "string[]"
        },
        {
          "internalType": "string",
          "name": "_gender",
          "type": "string"
        }
      ],
      "name": "setData",
      "outputs": [],
      "stateMutability": "nonpayable",
      "type": "function"
    },
    {
      "inputs": [
        {
          "internalType": "uint256",
          "name": "rollNo",
          "type": "uint256"
        }
      ],
      "name": "getSubjects",
      "outputs": [
        {
          "internalType": "string[]",
          "name": "",
          "type": "string[]"
        }
      ],
      "stateMutability": "view",
      "type": "function",
      "constant": true
    }
  ],
  "bytecode": "0x608060405234801561001057600080fd5b50610df5806100206000396000f3fe608060405234801561001057600080fd5b506004361061005e576000357c01000000000000000000000000000000000000000000000000000000009004806306ead22e14610063578063bb49bcbb14610096578063bcf556a0146100c6575b600080fd5b61007d6004803603810190610078919061056f565b6100e2565b60405161008d949392919061063b565b60405180910390f35b6100b060048036038101906100ab919061056f565b6102aa565b6040516100bd91906107a1565b60405180910390f35b6100e060048036038101906100db91906109de565b610398565b005b600060205280600052604060002060009150905080600001805461010590610b0a565b80601f016020809104026020016040519081016040528092919081815260200182805461013190610b0a565b801561017e5780601f106101535761010080835404028352916020019161017e565b820191906000526020600020905b81548152906001019060200180831161016157829003601f168201915b50505050509080600101549080600201805461019990610b0a565b80601f01602080910402602001604051908101604052809291908181526020018280546101c590610b0a565b80156102125780601f106101e757610100808354040283529160200191610212565b820191906000526020600020905b8154815290600101906020018083116101f557829003601f168201915b50505050509080600401805461022790610b0a565b80601f016020809104026020016040519081016040528092919081815260200182805461025390610b0a565b80156102a05780601f10610275576101008083540402835291602001916102a0565b820191906000526020600020905b81548152906001019060200180831161028357829003601f168201915b5050505050905084565b6060600080838152602001908152602001600020600301805480602002602001604051908101604052809291908181526020016000905b8282101561038d57838290600052602060002001805461030090610b0a565b80601f016020809104026020016040519081016040528092919081815260200182805461032c90610b0a565b80156103795780601f1061034e57610100808354040283529160200191610379565b820191906000526020600020905b81548152906001019060200180831161035c57829003601f168201915b5050505050815260200190600101906102e1565b505050509050919050565b60006040518060a001604052808781526020018681526020018581526020018481526020018381525090508060008089815260200190815260200160002060008201518160000190816103eb9190610ced565b5060208201518160010155604082015181600201908161040b9190610ced565b50606082015181600301908051906020019061042892919061044b565b50608082015181600401908161043e9190610ced565b5090505050505050505050565b828054828255906000526020600020908101928215610493579160200282015b828111156104925782518290816104829190610ced565b509160200191906001019061046b565b5b5090506104a091906104a4565b5090565b5b808211156104c457600081816104bb91906104c8565b506001016104a5565b5090565b5080546104d490610b0a565b6000825580601f106104e65750610505565b601f0160209004906000526020600020908101906105049190610508565b5b50565b5b80821115610521576000816000905550600101610509565b5090565b6000604051905090565b600080fd5b600080fd5b6000819050919050565b61054c81610539565b811461055757600080fd5b50565b60008135905061056981610543565b92915050565b6000602082840312156105855761058461052f565b5b60006105938482850161055a565b91505092915050565b600081519050919050565b600082825260208201905092915050565b60005b838110156105d65780820151818401526020810190506105bb565b60008484015250505050565b6000601f19601f8301169050919050565b60006105fe8261059c565b61060881856105a7565b93506106188185602086016105b8565b610621816105e2565b840191505092915050565b61063581610539565b82525050565b6000608082019050818103600083015261065581876105f3565b9050610664602083018661062c565b818103604083015261067681856105f3565b9050818103606083015261068a81846105f3565b905095945050505050565b600081519050919050565b600082825260208201905092915050565b6000819050602082019050919050565b600082825260208201905092915050565b60006106dd8261059c565b6106e781856106c1565b93506106f78185602086016105b8565b610700816105e2565b840191505092915050565b600061071783836106d2565b905092915050565b6000602082019050919050565b600061073782610695565b61074181856106a0565b935083602082028501610753856106b1565b8060005b8581101561078f5784840389528151610770858261070b565b945061077b8361071f565b925060208a01995050600181019050610757565b50829750879550505050505092915050565b600060208201905081810360008301526107bb818461072c565b905092915050565b600080fd5b600080fd5b7f4e487b7100000000000000000000000000000000000000000000000000000000600052604160045260246000fd5b610805826105e2565b810181811067ffffffffffffffff82111715610824576108236107cd565b5b80604052505050565b6000610837610525565b905061084382826107fc565b919050565b600067ffffffffffffffff821115610863576108626107cd565b5b61086c826105e2565b9050602081019050919050565b82818337600083830152505050565b600061089b61089684610848565b61082d565b9050828152602081018484840111156108b7576108b66107c8565b5b6108c2848285610879565b509392505050565b600082601f8301126108df576108de6107c3565b5b81356108ef848260208601610888565b91505092915050565b600067ffffffffffffffff821115610913576109126107cd565b5b602082029050602081019050919050565b600080fd5b600061093c610937846108f8565b61082d565b9050808382526020820190506020840283018581111561095f5761095e610924565b5b835b818110156109a657803567ffffffffffffffff811115610984576109836107c3565b5b80860161099189826108ca565b85526020850194505050602081019050610961565b5050509392505050565b600082601f8301126109c5576109c46107c3565b5b81356109d5848260208601610929565b91505092915050565b60008060008060008060c087890312156109fb576109fa61052f565b5b6000610a0989828a0161055a565b965050602087013567ffffffffffffffff811115610a2a57610a29610534565b5b610a3689828a016108ca565b9550506040610a4789828a0161055a565b945050606087013567ffffffffffffffff811115610a6857610a67610534565b5b610a7489828a016108ca565b935050608087013567ffffffffffffffff811115610a9557610a94610534565b5b610aa189828a016109b0565b92505060a087013567ffffffffffffffff811115610ac257610ac1610534565b5b610ace89828a016108ca565b9150509295509295509295565b7f4e487b7100000000000000000000000000000000000000000000000000000000600052602260045260246000fd5b60006002820490506001821680610b2257607f821691505b602082108103610b3557610b34610adb565b5b50919050565b60008190508160005260206000209050919050565b60006020601f8301049050919050565b60008160020a8302905092915050565b600060088302610ba07fffffffffffffffffffffffffffffffffffffffffffffffffffffffffffffffff82610b60565b610baa8683610b60565b95508019841693508086168417925050509392505050565b6000819050919050565b6000610be7610be2610bdd84610539565b610bc2565b610539565b9050919050565b6000819050919050565b610c0183610bcc565b610c15610c0d82610bee565b848454610b70565b825550505050565b600090565b610c2a610c1d565b610c35818484610bf8565b505050565b5b81811015610c5957610c4e600082610c22565b600181019050610c3b565b5050565b601f821115610c9e57610c6f81610b3b565b610c7884610b50565b81016020851015610c87578190505b610c9b610c9385610b50565b830182610c3a565b50505b505050565b60008160020a8304905092915050565b6000610cc460001984600802610ca3565b1980831691505092915050565b6000610cdd8383610cb3565b9150826002028217905092915050565b610cf68261059c565b67ffffffffffffffff811115610d0f57610d0e6107cd565b5b610d198254610b0a565b610d24828285610c5d565b600060209050601f831160018114610d575760008415610d45578287015190505b610d4f8582610cd1565b865550610db7565b601f198416610d6586610b3b565b60005b82811015610d8d57848901518255600182019150602085019450602081019050610d68565b86831015610daa5784890151610da6601f891682610cb3565b8355505b6001600288020188555050505b50505050505056fea26469706673582212208fbcee3dc64a88b958ca1cbb46ad64ddd7e8787e76aec55c88df8f0362e3d6ae64736f6c63430008150033",
  "immutableReferences": {},
  "source": "// SPDX-License-Identifier: GPL-3.0\r\npragma solidity >=0.8.0 <0.9.0;\r\n\r\ncontract StudentData {\r\n    struct Student {\r\n        string name;\r\n        uint age;\r\n        string email;\r\n        string[] subjects;\r\n        string gender;\r\n    }\r\n\r\n    mapping(uint => Student) public students;\r\n\r\n    function setData(uint rollNo, string memory _name, uint _age, string memory _email, string[] memory _subjects, string memory _gender) public {\r\n        Student memory newStudent = Student(_name, _age, _email, _subjects, _gender);\r\n        students[rollNo] = newStudent;\r\n    }\r\n\r\n    function getSubjects(uint rollNo) public view returns (string[] memory) {\r\n        return students[rollNo].subjects;\r\n    }\r\n}\r\n",
  "sourcePath": "C:\\Users\\kzoha\\OneDrive\\Desktop\\NEW\\contracts\\studentData.sol",
  "compiler": {
    "name": "solc",
    "version": "0.8.21+commit.d9974bed.Emscripten.clang"
  },
  "schemaVersion": "3.4.16",
  "updatedAt": "2024-03-09T05:55:08.167Z",
  "networkType": "ethereum",
  "devdoc": {
    "kind": "dev",
    "methods": {},
    "version": 1
  },
  "userdoc": {
    "kind": "user",
    "methods": {},
    "version": 1
  }
}